:020000040800F2
:1000000000200020D9010008E1010008E5010008F6
:1000100000000000000000000000000000000000E0
:1000200000000000000000000000000019020008AD
:1000300000000000000000001D020008691D00080B
:1000400095170008951700089517000895170008E0
:1000500095170008951700089517000895170008D0
:1000600095170008751D0008851D0008951D0008DE
:100070009517000895170008000000009517000864
:1000800000000000951700080000000000000000BC
:100090009517000800000000951700089517000844
:1000A0009517000895170008951700089517000880
:1000B0009517000895170008951700089517000870
:1000C00030B583B001F01AFB314B324A1360324A2B
:1000D0001360324B324A03E0116819600433043272
:1000E00030498B42F8D32B4B1A682F4B9A4204D1DC
:1000F000294B1A682D4B9A4200D0FEE7244B2C4A1C
:1001000013602C4A13602C4B02E000221A60043367
:100110002A4A9342F9D3264B1B68002B03D1254B67
:100120001B68002B00D0FEE701F0ECFA01A869463D
:1001300001F0C0FA224C234B1C1BA410002504E044
:10014000AA001F4BD35898470135AC42F8DC1E4C2F
:100150001E4B1C1BA410002504E0AA001A4BD35808
:1001600098470135AC42F8DC0198009901F0EEFCAB
:10017000051C174C174B1C1BA41004E0013CA200EB
:10018000134BD3589847002CF8DC281C01F06EFA6A
:10019000BABADECA0000002074000020000000206F
:1001A0003C280008780000207856341232547698A3
:1001B00078000020D402002078000020D80200201F
:1001C00050020008500200085002000850020008C7
:1001D000500200085002000808B5FFF771FFC04642
:1001E00000BEFEE704207146084202D0EFF309800A
:1001F00001E0EFF3088071460A4A104738B5051C44
:100200000C1C044801F05EFA281C211C01F07EFA47
:1002100000BEFEE7DC27000800BEFEE700BEFEE7EA
:0802200070470000FD01000819
:100228003C28000800000020780000203C28000836
:10023800000000000000000078000020D802002024
:080248000000000000000000AE
:1002500010B5041C01F096F8FA21890001F0A6FD02
:1002600000F0DCF901204042211C002200F09AF944
:10027000002010BD08B5064A116840230B431360E7
:100280000020FFF7E5FF01F071FC002008BDC0462B
:1002900000200240024A1368013313607047C046D1
:1002A0007C000020014B18687047C0467C0000208D
:1002B00010B582B0041C084B1868084901F076FD9F
:1002C0004443019402E0019B013B0193019B002BFD
:1002D000F9D102B010BDC0460C00002040420F0012
:1002E00038B5002800D1DFE0041C836D002B04D159
:1002F000C3655422835401F049FCA36DDB0604D48A
:100300002268936804210B4008D0A26D1023134388
:10031000A36500225423E2540120C6E0A06D634986
:10032000014002200143A16591680130014001298B
:1003300004D11168C90703D4002102E0002100E0C4
:10034000012100292DD16169C0200006814207D01A
:100350008020C005814203D080200006814209D15F
:10036000116989008908116121680A69606902437D
:100370000A610CE011698900890811614C4A106812
:100380004C490140116011686069014311602168A6
:10039000CA6818208243CA602168CA68A0690243FB
:1003A000CA6043490868444A02400A600868A26C6F
:1003B000520602430A6022689168C90004D4916819
:1003C00080204005014391602168C8683B4A024093
:1003D000CA602068C568626A216A022900D10423C4
:1003E0001A43A36A59030A43A36B59000A43236CB7
:1003F0001343626C91030B43E26CD20313432B4310
:10040000C360236BC222FF32934205D02268D168B9
:10041000606B03430B43D360E36A012B11D1A36AE2
:10042000002B06D12268D368802149020B43D36098
:1004300007E0A26D20231343A365E26D012313435C
:10044000E3656368012B13D1226811691C4B0B40D3
:10045000136122681169A368E068034320690343BC
:100460000B4313612268116901230B43136107E0F9
:1004700023681A69D20703D51A6901218A431A61D0
:100480002268536907218B43536122685369E169EC
:100490000B4353610023E365A36D03229343023AA8
:1004A0001343A365002000E0012038BDFDFEFFFFDF
:1004B00008270140FFFFC3FFFFFFFFFD1902FEFFFA
:1004C00003FCFF7F38B55423C35C012B5DD00122B0
:1004D0005423C254026893685B0708D5826D2023B9
:1004E0001343836500225423C25401204EE00D1CA7
:1004F000041C274B4968994224D0916A2B685B03FE
:100500005B0B0B4393622B685B0308D5214A13688E
:10051000802109040B4313600A20FFF7C9FE2B68F2
:100520009B0305D51B4A13688021C9030B43136045
:100530002B68DB0324D5174A1368802149040B4339
:1005400013601DE0916A2B685B035B0B994391621A
:100550002B685B0304D50F4A11680F4B0B401360E7
:100560002B689B0304D50B4A11680C4B0B4013609E
:100570002B68DB0304D5074A1168094B0B40136055
:1005800000225423E254002000E0022038BDC0467F
:100590000110000008270140FFFF7FFFFFFFBFFFA2
:1005A000FFFFFFFE70B5002816DAC0B20F2303402C
:1005B000083B9B089B00124A944663445A680324F4
:1005C0002040C000FC34251C8540AA4389012140FD
:1005D00081400A435A6011E083080A4CC0339B00F3
:1005E0001A5903252840C000FC352E1C8640B24312
:1005F000890129408140081C1043185170BDC04634
:1006000018ED00E000E100E01F2318401E3B83408E
:10061000181C014B1860704700E100E001380A4BDC
:1006200098420FD8094A506009490B6A1B021B0AFD
:10063000C020000603430B6200239360073313605E
:10064000002000E001207047FFFFFF0010E000E005
:1006500000ED00E0042805D1054A116804230B438E
:10066000136004E0024A136804218B43136070474F
:1006700010E000E07047C04608B5FFF7FBFF08BD7B
:1006800010B5002800D182E02523C35C002B02D1E5
:1006900000222433C25402222523C25401680A686E
:1006A0003C4B1A408368C46823430469234344696C
:1006B000234384692343C4692343046A23431343C4
:1006C0000B600368344A934209D1344B1A680F21F6
:1006D0008A431A601A6841680A431A6052E0304A35
:1006E00093420AD12D4A1368F0218B43136011689D
:1006F00043681B010B43136044E02A4A93420AD12A
:10070000264A1168284B0B401360116843681B028E
:100710000B43136036E0254A93420AD11F4A116801
:10072000234B0B401360116843681B030B4313609A
:1007300028E0204A93420AD1184A11681E4B0B4008
:100740001360116843681B040B4313601AE01B4AD3
:1007500093420AD1114A1168194B0B40136011687A
:1007600043681B050B4313600CE0164A934209D102
:100770000A4A1168144B0B401360116843681B064A
:100780000B43136001222523C254002000E0012006
:1007900010BDC0460FC0FFFF08000240A800024085
:1007A0001C00024030000240FFF0FFFF4400024006
:1007B000FF0FFFFF58000240FFFFF0FF6C000240F8
:1007C000FFFF0FFF80000240FFFFFFF010B5041C89
:1007D000974B19680368974883421FD09648834215
:1007E0001AD09648834214D0954883420ED095483B
:1007F000834208D09448834202D1802212040EE042
:10080000802212050BE08022120308E080221202EF
:1008100005E08022120102E0802200E008220A4264
:100820003CD01A68120739D51A6808218A431A6021
:100830002368804A93421FD07F4A93421AD07F4A4E
:10084000934214D07E4A93420ED07E4A934208D0FF
:100850007D4A934202D1802212040EE080221205CA
:100860000BE08022120308E08022120205E08022C1
:10087000120102E0802200E008226D4B5A60A26B58
:1008800001231343A36304222523E2540022013BE6
:10089000E254636B002B01D0201C9847644B19680D
:1008A0002368644883421FD0634883421AD0634858
:1008B000834214D0624883420ED06248834208D0FB
:1008C0006148834202D18022D2030EE08022D2040A
:1008D0000BE08022D20208E08022D20105E08022D3
:1008E000D20002E0402200E004220A4238D01A6816
:1008F000520735D51A68920603D41A6804218A4330
:100900001A6023684B4A93421FD04B4A93421AD035
:100910004A4A934214D04A4A93420ED0494A9342DB
:1009200008D0494A934202D18022D2030EE08022AD
:10093000D2040BE08022D20208E08022D20105E03E
:100940008022D20002E0402200E00422384B5A60AC
:1009500005222523E254236B002B01D0201C98474D
:10096000334B19682368334883421FD0324883428F
:100970001AD03248834214D0314883420ED03148D5
:10098000834208D03048834202D1802292030EE095
:10099000802292040BE08022920208E080229201E1
:1009A00005E08022920002E0202200E002220A42BA
:1009B0003DD01A6892073AD51A68920603D41A688D
:1009C00002218A431A6023681A4A93421FD01A4AA6
:1009D00093421AD0194A934214D0194A93420ED026
:1009E000184A934208D0184A934202D180229203B7
:1009F0000EE0802292040BE08022920208E0802226
:100A0000920105E08022920002E0202200E0022212
:100A1000074B5A60A36BA36301222523E2540022F3
:100A2000013BE254E36A002B01D0201C984710BD23
:100A300000000240080002401C000240300002405A
:100A400044000240580002406C000240F0B54746A6
:100A500080B40023AFE001249C402240904600D1A6
:100A6000A8E04C68022C01D0122C0ED1DF08083708
:100A7000BF003E5807241C40A4000F22A24096430A
:100A80000A69A240141C34433C504C68661E012E77
:100A900003D9112C01D0122C15D184685F000326D4
:100AA000BE40B443261CCC68BC40344384604468D8
:100AB0000126AE40B443271C4A68D606F60F341C04
:100AC000AC403C43446005685F000324A446BC403E
:100AD000E44325402E1C65464A681540BD40354319
:100AE0000560C5682C408D68BD402C43C4604A68D1
:100AF000D2005FD5344D6E6B012434436C639C0887
:100B0000A51CAD00314EAE5903271F40BD000F2775
:100B1000AF40BE43A027FF05B84215D02C4FB842C6
:100B200010D02C4FB8420BD02B4FB84206D02B4FD1
:100B3000B84201D1052708E0062706E0032704E0B4
:100B4000022702E0012700E00027AF403D1C3543AB
:100B50000234A4001D4EA551214C25684246D443C1
:100B60002E1C26404A68D20302D5424615432E1C4D
:100B70001B4D2E606D682E1C26404A68920302D5DC
:100B8000424615432E1C164D6E60AD682E1C264045
:100B90004A68D20202D5424615432E1C104DAE6063
:100BA000ED682C404A68920202D542462A43141C42
:100BB0000B4AD46001330A681D1C141CDC4000D0B1
:100BC00049E704BC9046F0BD00100240000001401F
:100BD0000004005000080050000C0050001C0050A1
:100BE00000040140F0B583B0041C0368DB0765D541
:100BF000C74BDB680C221340082B08D0C44BDB68C2
:100C000013400C2B0BD1C24BDB68DB0307D5C04B69
:100C10001B689B0352D56368002B4FD15AE263686F
:100C200080225202934206D1B94A136880214902B8
:100C30000B43136022E0A022D20293420FD1B44BA7
:100C40001968B44A0A401A601A688021C9020A4326
:100C50001A601A68802149020A431A600EE0AC4B00
:100C60001968AC4A0A401A601968802252020A4088
:100C70000192019A1968A84A0A401A606368002B19
:100C80000ED0FFF70FFB051C05E0FFF70BFB401B29
:100C9000642800D920E29E4B1B689B03F5D50DE02C
:100CA000FFF700FB051C05E0FFF7FCFA401B64287A
:100CB00000D913E2964B1B689B03F5D423689B076E
:100CC00053D5934BDB680C221340042B08D0904B78
:100CD000DB6813400C2B14D18D4BDB68DB0310D485
:100CE0008B4B1B685B0703D5E368012B00D0F7E152
:100CF00087494A68894B13402269120213434B60AB
:100D000033E0E268002A1CD081490B680920834344
:100D100013430B60FFF7C6FA051C05E0FFF7C2FAA4
:100D2000401B022800D9DDE1794B1B685B07F5D534
:100D300077494A68794B13402269120213434B608A
:100D400013E073490B680920834313430B60FFF7DB
:100D5000A9FA051C05E0FFF7A5FA401B022800D9F7
:100D6000C2E16B4B1B685B07F5D42368DB0657D5E4
:100D7000674BDB680C221A4219D1654B1B689B0537
:100D800003D5E369002B00D1B0E161494A68644BA7
:100D90001340626A13434B604B681B021B0A226AB2
:100DA000120613434B600020FFF752FA38E0E36964
:100DB000002B22D0564A1368802149000B43136050
:100DC000FFF770FA051C05E0FFF76CFA401B0228DC
:100DD00000D98DE14E4B1B689B05F5D54C494A68FF
:100DE0004F4B1340626A13434B604B681B021B0A54
:100DF000226A120613434B6012E0454A1168494BC0
:100E00000B401360FFF74EFA051C05E0FFF74AFAA6
:100E1000401B022800D96DE13D4B1B689B05F5D4B2
:100E200023681B0729D56369002B13D0384A116D3D
:100E300001230B431365FFF735FA051C05E0FFF7A7
:100E400031FA401B022800D956E1314B1B6D9B073C
:100E5000F5D512E02E4A136D01218B431365FFF780
:100E600021FA051C05E0FFF71DFA401B022800D9F6
:100E700044E1274B1B6D9B07F5D423689B0636D5B1
:100E8000A369002B1BD0224B996801221143996062
:100E9000596B0A435A63244A136A24490B43136269
:100EA000FFF700FA051C05E0FFF7FCF9401B0228DC
:100EB00000D925E1164B9B689B07F5D517E0144A2E
:100EC000936801218B439360174A116A184B0B40BA
:100ED0001362FFF7E7F9051C05E0FFF7E3F9401B94
:100EE000022800D90EE10A4B9B689B07F5D42368C2
:100EF0005B0700D49EE0064B9B6BDB001AD4044AD0
:100F0000936B802149050B439363012513E0C04691
:100F100000100240FFFFFEFFFFFFFBFFFFE0FFFFAF
:100F2000FF1FFFFFFFFEFFFF000001400120000048
:100F3000FEDFFFFF00257D4B1B68DB0515D47B4AD8
:100F40001368802149000B431360FFF7ABF9061CBF
:100F500005E0FFF7A7F9801B642800D9D4E0734BA4
:100F60001B68DB05F5D5012600E00026A36880227A
:100F70005200934206D16E4A136D802149000B4303
:100F8000136528E0002B09D1694B196D694A0A40A5
:100F90001A65196D684A0A401A651CE0A022D20041
:100FA00093420FD1624B196D624A0A401A651A6D5D
:100FB0008021C9000A431A651A6D802149000A433D
:100FC0001A6508E05A4B196D5A4A0A401A65196D9C
:100FD000594A0A401A65A368002B0FD0FFF762F93F
:100FE000071C06E0FFF75EF9C01B544B984200D97E
:100FF0008CE04F4B1B6D9B05F4D50DE0FFF752F9CC
:10100000071C05E0FFF74EF9C01B4C4B98427FD8F8
:10101000474B1B6D9B05F5D4012E04D1434A116843
:10102000444B0B401360012D04D1414A916B444B5A
:101030000B409363A36A002B6CD03D4AD2680C210D
:101040000A400C2A68D0022B30D1394A11683D4B36
:101050000B401360FFF726F9051C04E0FFF722F9A7
:10106000401B02285AD8324B1B689B01F6D43049EA
:10107000C868354B1840236B626B1343E26A134315
:101080000343CB600B688022520413430B60FFF7CD
:1010900009F9041C04E0FFF705F9001B02283FD8FA
:1010A000234B1B689B01F6D500203CE0204A1168C9
:1010B000244B0B401360FFF7F5F8041C04E0FFF726
:1010C000F1F8001B02282DD8194B1B689B01F6D4A0
:1010D000002028E0012026E0032024E0032022E075
:1010E000012020E003201EE003201CE001201AE084
:1010F000032018E0032016E0032014E0032012E090
:10110000032010E003200EE003200CE003200AE09F
:10111000032008E0002006E0012004E0032002E0B4
:10112000032000E0032003B0F0BDC0460070004083
:1011300000100240FFFEFFFFFFFBFFFF88130000CF
:10114000FFFFFFEFFFFFFFFEFFFF02FF70B55E4BEB
:101150001B68012213408B420AD25B4A13680124A8
:10116000A3430B431360136823408B4200D097E0E6
:1011700003689B0706D5554AD368F024A3438468C7
:101180002343D3600D1C041C0368DB075ED5436852
:10119000022B04D14D4A1268920312D482E0002B34
:1011A00004D14A4A126892050BD47DE0032B04D186
:1011B000464A1268920104D478E0444A1268520701
:1011C00076D54249CA68032082431343CB60FFF7B8
:1011D00069F8061C6368022B0DD105E0FFF762F881
:1011E000801B3B4B984265D8384BDB680C22134080
:1011F000082BF3D12AE0032B0DD105E0FFF752F8BD
:10120000801B334B984257D8304BDB680C2213407D
:101210000C2BF3D11AE0002B06D011E0FFF742F8B7
:10122000801B2B4B984249D8284BDB680C221A4272
:10123000F4D10BE0FFF736F8801B254B98423FD8DE
:10124000224BDB680C221340042BF3D11E4B1B688E
:1012500001221340AB4209D31B4A136801218B437F
:101260002B43136013680B40AB422BD123685B0701
:1012700006D5164AD168174B0B40E1680B43D36083
:1012800023681B0707D51149CA68134B134022690D
:10129000D2001343CB600020FEF7DAFF002012E0FB
:1012A000012010E001200EE001200CE001200AE006
:1012B000012008E0032006E0032004E0032002E010
:1012C000032000E0012070BD002002400010024019
:1012D00088130000FFF8FFFFFFC7FFFF08B5244B8E
:1012E00058680004400FDB680C221340042B0ED01A
:1012F00002D8002B05D030E0082B34D00C2B0CD0BA
:101300002BE0013080231B028340181C2EE0184B79
:101310001B68DB0629D5174828E0154AD3689B02CD
:10132000D16809021B0F1448C35C890F0131D268D0
:10133000D2030DD40E4A1268D20604D50D48584384
:1013400000F034FD12E00D48584300F02FFD0DE091
:101350000B48584300F02AFD08E0013080231B02AF
:101360008340181C02E0064800E0044808BDC0465F
:101370000010024000093D00FC2700080024F40092
:1013800000127A0008B5FFF7A9FF054BDB681B06C2
:101390001B0F044AD35CD840034B186008BDC046FD
:1013A000001002401C2700080C0000200368802267
:1013B000D205904207D0194A904206D0184A90426E
:1013C00005D1012204E0012202E0012200E0002216
:1013D000002A03D0702293434A6813438022D20527
:1013E000904207D00D4A904206D00D4A904205D156
:1013F000012204E0012202E0012200E00022002A92
:1014000003D0084A1340CA68134303608B68C36261
:101410000B688362012343617047C04600080140A6
:1014200000140140FFFCFFFF30B5036A0122934323
:101430000362036A446882697325AA430D682A43DC
:101440000225AB438D682B43446082614A68426346
:10145000036230BD30B5036A102293430362036A0E
:1014600045688469074A22400C68240222432024EC
:10147000A3438C6824012343456082614A688263E8
:10148000036230BDFF8CFFFF30B5026A0A4B134088
:101490000362046A4568C26973239A430B681A435E
:1014A000064B23408C68240223434560C2614A688E
:1014B000C263036230BDC046FFFEFFFFFFFDFFFFBA
:1014C00070B5026A0A4B13400362066A4568C36935
:1014D000084A1A400B681C022243074B33408C68B1
:1014E000240323434560C2614A680264036270BDFD
:1014F000FFEFFFFFFF8CFFFFFFDFFFFF38B5002886
:1015000014D0041C3523C35C002B04D100223433D7
:10151000C25400F06BFB352502236355211C01C921
:10152000FFF744FF01236355002000E0012038BD90
:1015300038B53423C35C012B6DD00D1C041C012174
:101540003423C15401310133C154042A1CD002D8C0
:10155000002A05D057E0082A2CD00C2A3ED052E0B1
:101560000068291CFFF760FF2268916908230B437C
:1015700093612268936904218B4393612268916986
:10158000EB680B4393613EE00068291CFFF762FFA4
:1015900022689369802109010B4393612268916954
:1015A0001E4B0B40936122689169EB681B020B4351
:1015B000936128E00068291CFFF766FF2268D16963
:1015C00008230B43D3612268D36904218B43D36181
:1015D0002268D169EB680B43D36114E00068291CD1
:1015E000FFF76EFF2268D369802109010B43D361A5
:1015F0002268D169094B0B40D3612268D169EB683D
:101600001B020B43D36101223523E2540022013B2C
:10161000E254002000E0022038BDC046FFFBFFFF7F
:10162000F0B53423C35C012B1ED034220125855430
:10163000352402230355066873687027BB43736023
:10164000066873680F683B4373600668B368802759
:10165000BB43B3600668B7684B683B43B36005554E
:1016600000238354002000E00220F0BDFEE7C046C6
:1016700008B5031C0C4A1268002A02D10B490A4A19
:101680001160094A1068033303229343C318084AC0
:10169000934206D900F01CFC0C2303600120404259
:1016A00001E0014A136008BD80000020D80200203C
:1016B000001C002001230360014B0B607047C046F3
:1016C000040000200FB400B583B004AB04CB019339
:1016D0000748802100F02CFC011E03DD044800F0C7
:1016E00009F8011C081C03B008BC04B01847C04628
:1016F00088000020012040427047C04608B500F035
:101700004BF808BD08B500F075F808BD38B5041CE5
:101710000D1C1548FFF7D6FF14482168FFF7D2FFCC
:1017200013486168FFF7CEFF1248A168FFF7CAFFB0
:101730001148E168FFF7C6FF10482169FFF7C2FFB3
:101740000F486169FFF7BEFF0E48A169FFF7BAFFB6
:10175000E1690D48FFF7B6FF0C48FFF7B3FF0C48EF
:10176000291CFFF7AFFF38BD2C2700083C270008D5
:101770004C2700085C2700086C2700087C2700081D
:101780008C2700089C270008AC270008BC2700080D
:10179000C4270008FEE70000104B1A6880214900AA
:1017A0000A431A60D9680E4A0A40DA6019680D4A7D
:1017B0000A401A609A6801218A439A6019680A4AA5
:1017C0000A401A60D968094A0A40DA6000221A61A0
:1017D00080221205064B9A607047C04600100240F6
:1017E0000C40FF88F6FFF6FEFFFFFBFFFFFF02FF46
:1017F00000ED00E008B52A4BDB680C221340042BF7
:1018000014D002D8002B05D033E0082B12D00C2BBB
:1018100014D02EE0224B5B681B045B0F0133802247
:1018200012029A40131C1F4A13602DE01E4A1D4BE2
:101830001A6029E01D4A1B4B1A6025E0184AD3683C
:101840009B02D16809021B0F1948C05C890F013146
:10185000D368DB0306D4144B584300F0A7FA114BAE
:10186000186011E0114B584300F0A0FA0D4B1860BE
:101870000AE00B4B5B681B045B0F013380221202F2
:101880009A40131C074A1360054BDB681B061B0FAD
:10189000084AD35C034A1168D940116008BDC046AC
:1018A000001002400C0000200024F40000127A0016
:1018B000FC270008EC270008F0B58BB0264BDA6A4D
:1018C00004263243DA62DA6A32400192019AD96A16
:1018D00080200143D962DA6A02400292029ADA6AEF
:1018E00001252A43DA62DA6A2A400392039ADA6A05
:1018F00002273A43DA62DB6A3B400493049B80236D
:101900009B010593154B069300240794144805A9E1
:10191000FFF79CF80C23059306970794093B08935F
:101920000996A026F605301C05A9FFF78FF820239D
:101930000593069507940894301C05A9FFF786F8CF
:10194000C0239B000593069507940894044805A9B5
:10195000FFF77CF80BB0F0BD001002400000121041
:101960000008005000B583B0114A116B01200143FB
:101970001163136B03400193019B08300021002287
:10198000FEF710FE0920FEF73FFE0A20002100228C
:10199000FEF708FE0A20FEF737FE0B20002100228A
:1019A000FEF700FE0B20FEF72FFE03B000BDC04681
:1019B0000010024010B582B0114C124B236000237E
:1019C00063606361A361E361012222626362A362D7
:1019D000E3626363A3630332E26323646364A36427
:1019E000E364201CFEF77CFC074B009380235B0123
:1019F0000193201C6946FEF765FD02B010BDC0468C
:101A000000020020002401400008002C30B587B0FF
:101A1000164C8023DB05236000256560A560E5602A
:101A20002561201CFFF76AFD04950595201C04A97B
:101A3000FFF7F6FD60230093019502950395201CA6
:101A400069460022FFF774FD201C69460422FFF757
:101A50006FFD201C69460822FFF76AFD201C6946BD
:101A60000C22FFF765FD07B030BDC046C80100205D
:101A700030B587B0104C114B236000256560A56020
:101A8000E5602561201CFFF739FD04950595201CB4
:101A900004A9FFF7C5FD6023009301950295039506
:101AA000201C69460022FFF743FD201C69460422E2
:101AB000FFF73EFD07B030BD9C020020000801404A
:101AC00030B595B01E4A936B802149050B43936353
:101AD0001C4A11681C4B0B40802109010B43136009
:101AE000022306930125099510220A9210930024DF
:101AF00011948023DB0212938023DB03139306A847
:101B0000FFF770F80195032302930394049405945E
:101B100001A80121FFF71AFBFFF734FCFA21890025
:101B200000F044F9FEF77AFD0420FEF793FD012052
:101B3000404200210022FEF735FD15B030BDC04601
:101B40000010024000700040FFE7FFFF08B5FEF7FD
:101B500091FBFFF7B5FFFFF7AFFEFFF703FFFFF7BE
:101B600029FFFFF753FFFFF783FFFEE708B5064A9B
:101B7000516B01230B43536301204042002100229B
:101B8000FEF710FD08BDC0460010024030B587B01A
:101B90000268124B9A421FD1114A536B802189006F
:101BA0000B435363032401940294002503950D48CD
:101BB00001A9FEF74BFF1023019302940395A02087
:101BC000C00501A9FEF742FF01230193029403958A
:101BD000054801A9FEF73AFF07B030BD00240140D7
:101BE000001002400008005000040050F0B55F46AD
:101BF00056464D464446F0B487B0041C0368802224
:101C0000D20593427CD14D4A916B01230B439363E0
:101C10000323019302250295002603960496059559
:101C2000A020C00501A9FEF711FFC0231B010193ED
:101C30000295039604960595414801A9FEF706FF13
:101C4000404D414B2B6008239B466B6008339A46FE
:101C5000AB60EE60703399462B618133FF33984659
:101C60006B6180273F01AF61E13BFF3BEB612E627F
:101C7000281CFEF705FDE561AC62344D344B2B604A
:101C80005B466B605346AB60EE604B462B61434650
:101C90006B61AF61E13BFF3BEB612E62281CFEF7FD
:101CA000EFFC2562AC622B4D2B4B2B605B466B60CF
:101CB0005346AB60EE604B462B6143466B61AF61B0
:101CC000E13BFF3BEB612E62281CFEF7D9FC65620D
:101CD000AC62224D224B2B605B466B605346AB607F
:101CE000EE604B462B6143466B61AF61E13BFF3BCE
:101CF000EB612E62281CFEF7C3FCA562AC6215E006
:101D0000184A934212D10D4A516B04230B4353637B
:101D1000C023DB0101930223029300230393049366
:101D200006330593064801A9FEF790FE07B03CBCB8
:101D300090469946A246AB46F0BDC0460010024010
:101D400000040050140100205800024050010020FF
:101D50003000024060020020080002408C01002098
:101D6000440002400008014008B5FEF793FAFEF770
:101D700083FC08BD08B50248FEF728FD08BDC04633
:101D80006002002008B50248FEF720FD08BDC046ED
:101D90005001002008B50348FEF718FD0248FEF781
:101DA00015FD08BD8C01002014010020002243080D
:101DB0008B4274D303098B425FD3030A8B4244D313
:101DC000030B8B4228D3030C8B420DD3FF22090255
:101DD00012BA030C8B4202D31212090265D0030B14
:101DE0008B4219D300E0090AC30B8B4201D3CB030A
:101DF000C01A5241830B8B4201D38B03C01A52414C
:101E0000430B8B4201D34B03C01A5241030B8B424D
:101E100001D30B03C01A5241C30A8B4201D3CB0238
:101E2000C01A5241830A8B4201D38B02C01A52411D
:101E3000430A8B4201D34B02C01A5241030A8B4220
:101E400001D30B02C01A5241CDD2C3098B4201D338
:101E5000CB01C01A524183098B4201D38B01C01AB6
:101E6000524143098B4201D34B01C01A524103092D
:101E70008B4201D30B01C01A5241C3088B4201D3DC
:101E8000CB00C01A524183088B4201D38B00C01A89
:101E9000524143088B4201D34B00C01A5241411AB0
:101EA00000D20146524110467047FFE701B50020BD
:101EB00000F00CF802BDC0460029F7D003B5FFF7CB
:101EC00075FF0EBC4243891A1847C0467047C0468A
:101ED000014B18687047C0467000002030B5151CD3
:101EE0009BB0002A04DA8B230360012040421DE0EE
:101EF00082226C460091049100219200A2818D42C1
:101F000000D0691E1A1C01230291059169465B42AB
:101F1000CB811E9B041C00F07BF8431C01DA8B2351
:101F20002360002D02D00023009A13701BB030BD37
:101F300073B5061C0D1C141C0093044B311C2A1C89
:101F40001868231CFFF7CAFF76BDC046700000204A
:101F5000F0B58E6885B0071C0C1C03920193B34248
:101F600045D390238A89DB001A423DD003250969B5
:101F7000236801985B1A029363695D43EB0F5D1957
:101F8000029B6D1001331B189D4200D21D1C381C92
:101F900053050FD5291C00F025FB061E13D0029A0D
:101FA000216900F0BCFAA289184B13408022134328
:101FB000A38111E02A1C00F06DFB061E0CD1381C19
:101FC000216900F0C9FA0C23402201203B60A3895B
:101FD00040421343A38117E0029B2661F618266056
:101FE0006561019EED1AA560019BB34200D2019E7E
:101FF000321C2068039900F09BFA0020A3689B1B09
:10200000A36023689E19266005B0F0BD7FFBFFFF2B
:10201000F0B59FB0029005938B890E1C171C1B0610
:1020200010D50B69002B0DD1402100F0DBFA306098
:102030003061002804D10C23029A01381360D0E0EB
:1020400040237361002306AD6B6120336B76103340
:10205000AB763C1C2378002B03D1E31B049312D0F6
:1020600003E0252BF9D00134F4E7049B0298311CDE
:102070003A1CFFF76DFF431C00D1ACE06A69049B7A
:10208000944663446B612378002B00D1A3E00122C6
:10209000002352426A6002A95432521801342B6064
:1020A000EB60AB601370AB654F4F2178381C052295
:1020B00000F02AFA002808D0C01B01278740381CEE
:1020C0002B68013418432860EEE72B68DA0604D544
:1020D0005322202102A8121811701A0704D5532286
:1020E0002B2102A81218117022782A2A01D0099BEC
:1020F0000EE0059A111D12680591002A01DB099274
:1021000004E05242EA60022213432B60013409E0EA
:102110002278303A092A04D80A214B4301349B180B
:10212000F6E7099323782E2B18D163782A2B09D14F
:10213000059B02341A1D1B680592002B0DDA012342
:102140005B420AE0002301342278303A092A04D89D
:102150000A214B4301349B18F6E70793234F21785C
:10216000381C032200F0D0F9002807D0C01B4027FC
:102170008740381C2B6801341843286021781C489C
:102180000622671C297600F0BFF9002812D0194BEF
:10219000002B06D10722059B073393430833059391
:1021A00014E005AB00930298291C321C124B00E08E
:1021B00000BF07E005AB00930298291C321C0E4BB0
:1021C00000F08AF80390039B013304D06B69039AF3
:1021D0009B186B613DE7B3890B985B0601D5012025
:1021E00040421FB0F0BDC046072800080D28000877
:1021F0001128000800000000511F0008F7B5171C47
:1022000001930A698B6800900C1C934200DA131C3E
:10221000221C3B6043321278002A01D001333B601C
:1022200023689B0602D53B6802333B600625236882
:102230001D401ED0231C43331B785A1E9341226835
:1022400092061CD53020E1184031C870211C5A1C60
:1022500045310978A21840320233D1700FE0221CB8
:102260000123009801991932089EB047431C0ED0F3
:102270000135E3683A689B1A9D42F0DBDAE7221CDD
:10228000009801994332089DA847431C02D10120C0
:10229000404220E006232068E1683A6803400025B8
:1022A000042B03D18D1AEB43DB171D40A368226971
:1022B000934201DD9B1AED180027AF420ADA221C77
:1022C0000123009801991A32089EB047431CDED0C2
:1022D0000137F2E70020FEBDF0B58BB006920A1C74
:1022E00043320793059004920A7E0C1C109B6E2AC1
:1022F00000D1A8E011D8632A22D009D8002A00D141
:10230000B2E0582A00D0C2E045310A707C4A4FE062
:10231000642A1DD0692A1BD0B9E0732A00D1A7E036
:1023200009D86F2A29D0702A00D0B0E0202209688D
:102330000A43226037E0752A1FD0782A33D0A6E0FE
:102340000E1C1A684236111D196013683370A1E023
:1023500021681A68080606D4490604D5111D1960BB
:102360000023D55E02E0111D19601568002D3BDACF
:102370002D23049A6D42137036E021681A6808060E
:1023800006D4490604D51568111D1960ADB202E0E6
:10239000111D196015685A4B227E03930A276F2A74
:1023A0001DD108271BE0221C782145321170554AA7
:1023B00019680392081D226818600D68100602D47F
:1023C000500600D5ADB2D30702D520231A432260B0
:1023D0001027002D03D1202322689A432260231C5A
:1023E000002243331A7002E00A27454B03936368C7
:1023F000A360002B03DB0422216891432160002DA0
:1024000002D1049E002B0ED0049E281C391CFFF71D
:1024100053FD039B013E5B5C281C3370391CFFF7A6
:10242000C5FC051EF1D1082F09D12368DB0706D5AD
:1024300063682269934202DC3023013E3370049BBF
:102440009B1B23612BE009681A68080607D449061C
:1024500005D5111D19601368A28A1A8004E0111DA8
:102460001960136862691A600023049E236116E0F4
:102470001A68111D196016680021301C626800F08E
:1024800043F8002801D0801B6060636803E0261CCD
:1024900042363270012323610023049A1370079B94
:1024A00005980093211C069B09AAFFF7A7FE431C71
:1024B00002D10120404221E0236905980699321C8F
:1024C000079DA847431CF4D023689B0705D4099BAC
:1024D000E068984212DA181C10E00025E368099AB7
:1024E0009B1A9D42F3DA221C0123059806991932A2
:1024F000079EB047431CDCD00135EFE70BB0F0BDC1
:102500001828000829280008C9B28218904204D06F
:1025100003788B4202D00130F8E700207047002397
:1025200010B5934203D0CC5CC4540133F9E710BD1D
:1025300010B5814208D28B18984205D29B1A013AF5
:1025400009D3995C8154FAE70023934203D0CC5C11
:10255000C4540133F9E710BD30B500293ED0043929
:102560000B68002B00DAC9181D4A1368141C002BD5
:1025700002D14B60116031E099420DD208680A180F
:102580009A4203D11368C3180B6053684B602160F3
:1025900024E08A4203D8131C5A68002AF9D11D6826
:1025A0005C198C420BD1096869185818196090425F
:1025B00014D110685268091819605A600EE08C42F4
:1025C00002D90C23036009E008680C18944203D177
:1025D00014685268001908604A60596030BDC046EE
:1025E0000C010020032370B5CC1C9C430834051C4F
:1025F0000C2C01D20C2405E0002C03DA0C23002063
:102600002B6042E08C42F9D3204A1368101C191C3D
:10261000002913D00A68121B0DD40B2A02D90A60B4
:102620008B181FE08B4202D15A6802601BE04A6897
:102630005A600B1C17E00B1C4968E9E7144E33681D
:10264000002B03D1281C00F04BF83060281C211C03
:1026500000F046F8031C421CD0D00322C61C96434F
:1026600086420AD11C60181C07210B301A1D8843B2
:10267000821A0AD05142995007E0311A281C00F002
:102680002FF8431CBAD0331CECE770BD0C010020BE
:1026900008010020F8B5061C0C1C151C002904D1EB
:1026A000111CFFF79FFF041C18E0002A03D1FFF75D
:1026B00053FF2C1C12E000F025F8A8420ED2301C6B
:1026C000291CFFF78FFF071E07D0211C2A1CFFF7CC
:1026D00026FF301C211CFFF73FFF3C1C201CF8BDCF
:1026E00038B50023064C051C081C2360FEF7C0FF0C
:1026F000431C03D12368002B00D02B6038BDC0469B
:10270000100100200B1F1A68101F002A04DA891814
:1027100004390B68D018043870470000000000002E
:1027200001020304010203040607080953746163EC
:102730006B206672616D653A0A00000020523020FD
:102740003D2020253038580A00000000205231205A
:102750003D2020253038580A000000002052322049
:102760003D2020253038580A000000002052332038
:102770003D2020253038580A000000002052313218
:10278000203D20253038580A00000000204C5220FF
:102790003D2020253038580A0000000020504320FA
:1027A0003D2020253038580A0000000020505352A8
:1027B000203D20253038580A000000004D69736321
:1027C0000A000000204C522F4558435F5245545593
:1027D000524E3D20253038580A0000005B48617297
:1027E000644661756C745D0A000000000000000022
:1027F000000000000102030406070809030406089C
:102800000C101820304300232D302B2000686C4C16
:102810000065666745464700303132333435363718
:10282000383941424344454600303132333435363D
:0A28300037383961626364656600A1
:10283C0078563412840000200000000080841E00B2
:10284C00000000000000000000000000000000007C
:10285C00000000000000000000000000000000006C
:10286C000528000800000000000000000000000027
:10287C00000000000000000000000000000000004C
:10288C00000000000000000000000000000000003C
:10289C00000000000000000000000000000000002C
:0828AC00100000203254769860
:04000005080000C12E
:00000001FF
